{
  "address": "0xC20bB9A1dE6b69dc011bAF0348969CE7714F0DD4",
  "abi": [
    {
      "inputs": [
        {
          "internalType": "address",
          "name": "_airnodeRrp",
          "type": "address"
        }
      ],
      "stateMutability": "nonpayable",
      "type": "constructor"
    },
    {
      "anonymous": false,
      "inputs": [
        {
          "indexed": true,
          "internalType": "address",
          "name": "owner",
          "type": "address"
        },
        {
          "indexed": true,
          "internalType": "address",
          "name": "approved",
          "type": "address"
        },
        {
          "indexed": true,
          "internalType": "uint256",
          "name": "tokenId",
          "type": "uint256"
        }
      ],
      "name": "Approval",
      "type": "event"
    },
    {
      "anonymous": false,
      "inputs": [
        {
          "indexed": true,
          "internalType": "address",
          "name": "owner",
          "type": "address"
        },
        {
          "indexed": true,
          "internalType": "address",
          "name": "operator",
          "type": "address"
        },
        {
          "indexed": false,
          "internalType": "bool",
          "name": "approved",
          "type": "bool"
        }
      ],
      "name": "ApprovalForAll",
      "type": "event"
    },
    {
      "anonymous": false,
      "inputs": [
        {
          "indexed": true,
          "internalType": "address",
          "name": "previousOwner",
          "type": "address"
        },
        {
          "indexed": true,
          "internalType": "address",
          "name": "newOwner",
          "type": "address"
        }
      ],
      "name": "OwnershipTransferred",
      "type": "event"
    },
    {
      "anonymous": false,
      "inputs": [
        {
          "indexed": true,
          "internalType": "bytes32",
          "name": "requestId",
          "type": "bytes32"
        },
        {
          "indexed": false,
          "internalType": "uint256",
          "name": "response",
          "type": "uint256"
        }
      ],
      "name": "ReceivedUint256",
      "type": "event"
    },
    {
      "anonymous": false,
      "inputs": [
        {
          "indexed": true,
          "internalType": "bytes32",
          "name": "requestId",
          "type": "bytes32"
        }
      ],
      "name": "RequestedUint256",
      "type": "event"
    },
    {
      "anonymous": false,
      "inputs": [
        {
          "indexed": true,
          "internalType": "address",
          "name": "from",
          "type": "address"
        },
        {
          "indexed": true,
          "internalType": "address",
          "name": "to",
          "type": "address"
        },
        {
          "indexed": true,
          "internalType": "uint256",
          "name": "tokenId",
          "type": "uint256"
        }
      ],
      "name": "Transfer",
      "type": "event"
    },
    {
      "inputs": [],
      "name": "airnode",
      "outputs": [
        {
          "internalType": "address",
          "name": "",
          "type": "address"
        }
      ],
      "stateMutability": "view",
      "type": "function"
    },
    {
      "inputs": [],
      "name": "airnodeRrp",
      "outputs": [
        {
          "internalType": "contract IAirnodeRrpV0",
          "name": "",
          "type": "address"
        }
      ],
      "stateMutability": "view",
      "type": "function"
    },
    {
      "inputs": [
        {
          "internalType": "address",
          "name": "to",
          "type": "address"
        },
        {
          "internalType": "uint256",
          "name": "tokenId",
          "type": "uint256"
        }
      ],
      "name": "approve",
      "outputs": [],
      "stateMutability": "nonpayable",
      "type": "function"
    },
    {
      "inputs": [
        {
          "internalType": "address",
          "name": "owner",
          "type": "address"
        }
      ],
      "name": "balanceOf",
      "outputs": [
        {
          "internalType": "uint256",
          "name": "",
          "type": "uint256"
        }
      ],
      "stateMutability": "view",
      "type": "function"
    },
    {
      "inputs": [
        {
          "internalType": "uint256",
          "name": "",
          "type": "uint256"
        }
      ],
      "name": "characters",
      "outputs": [
        {
          "internalType": "uint256",
          "name": "strength",
          "type": "uint256"
        },
        {
          "internalType": "uint256",
          "name": "intelligence",
          "type": "uint256"
        },
        {
          "internalType": "uint256",
          "name": "mana",
          "type": "uint256"
        },
        {
          "internalType": "uint256",
          "name": "experience",
          "type": "uint256"
        },
        {
          "internalType": "string",
          "name": "name",
          "type": "string"
        }
      ],
      "stateMutability": "view",
      "type": "function"
    },
    {
      "inputs": [],
      "name": "endpointIdUint256",
      "outputs": [
        {
          "internalType": "bytes32",
          "name": "",
          "type": "bytes32"
        }
      ],
      "stateMutability": "view",
      "type": "function"
    },
    {
      "inputs": [
        {
          "internalType": "bytes32",
          "name": "",
          "type": "bytes32"
        }
      ],
      "name": "expectingRequestWithIdToBeFulfilled",
      "outputs": [
        {
          "internalType": "bool",
          "name": "",
          "type": "bool"
        }
      ],
      "stateMutability": "view",
      "type": "function"
    },
    {
      "inputs": [
        {
          "internalType": "bytes32",
          "name": "requestId",
          "type": "bytes32"
        },
        {
          "internalType": "bytes",
          "name": "data",
          "type": "bytes"
        }
      ],
      "name": "fulfillRandomness",
      "outputs": [],
      "stateMutability": "nonpayable",
      "type": "function"
    },
    {
      "inputs": [
        {
          "internalType": "uint256",
          "name": "tokenId",
          "type": "uint256"
        }
      ],
      "name": "getApproved",
      "outputs": [
        {
          "internalType": "address",
          "name": "",
          "type": "address"
        }
      ],
      "stateMutability": "view",
      "type": "function"
    },
    {
      "inputs": [
        {
          "internalType": "uint256",
          "name": "tokenId",
          "type": "uint256"
        }
      ],
      "name": "getCharacterStats",
      "outputs": [
        {
          "internalType": "uint256",
          "name": "",
          "type": "uint256"
        },
        {
          "internalType": "uint256",
          "name": "",
          "type": "uint256"
        },
        {
          "internalType": "uint256",
          "name": "",
          "type": "uint256"
        },
        {
          "internalType": "uint256",
          "name": "",
          "type": "uint256"
        }
      ],
      "stateMutability": "view",
      "type": "function"
    },
    {
      "inputs": [
        {
          "internalType": "address",
          "name": "owner",
          "type": "address"
        },
        {
          "internalType": "address",
          "name": "operator",
          "type": "address"
        }
      ],
      "name": "isApprovedForAll",
      "outputs": [
        {
          "internalType": "bool",
          "name": "",
          "type": "bool"
        }
      ],
      "stateMutability": "view",
      "type": "function"
    },
    {
      "inputs": [],
      "name": "name",
      "outputs": [
        {
          "internalType": "string",
          "name": "",
          "type": "string"
        }
      ],
      "stateMutability": "view",
      "type": "function"
    },
    {
      "inputs": [],
      "name": "owner",
      "outputs": [
        {
          "internalType": "address",
          "name": "",
          "type": "address"
        }
      ],
      "stateMutability": "view",
      "type": "function"
    },
    {
      "inputs": [
        {
          "internalType": "uint256",
          "name": "tokenId",
          "type": "uint256"
        }
      ],
      "name": "ownerOf",
      "outputs": [
        {
          "internalType": "address",
          "name": "",
          "type": "address"
        }
      ],
      "stateMutability": "view",
      "type": "function"
    },
    {
      "inputs": [],
      "name": "renounceOwnership",
      "outputs": [],
      "stateMutability": "nonpayable",
      "type": "function"
    },
    {
      "inputs": [
        {
          "internalType": "string",
          "name": "name",
          "type": "string"
        }
      ],
      "name": "requestNewRandomCharacter",
      "outputs": [
        {
          "internalType": "bytes32",
          "name": "",
          "type": "bytes32"
        }
      ],
      "stateMutability": "nonpayable",
      "type": "function"
    },
    {
      "inputs": [
        {
          "internalType": "bytes32",
          "name": "",
          "type": "bytes32"
        }
      ],
      "name": "requestToCharacterName",
      "outputs": [
        {
          "internalType": "string",
          "name": "",
          "type": "string"
        }
      ],
      "stateMutability": "view",
      "type": "function"
    },
    {
      "inputs": [
        {
          "internalType": "bytes32",
          "name": "",
          "type": "bytes32"
        }
      ],
      "name": "requestToSender",
      "outputs": [
        {
          "internalType": "address",
          "name": "",
          "type": "address"
        }
      ],
      "stateMutability": "view",
      "type": "function"
    },
    {
      "inputs": [
        {
          "internalType": "bytes32",
          "name": "",
          "type": "bytes32"
        }
      ],
      "name": "requestToTokenId",
      "outputs": [
        {
          "internalType": "uint256",
          "name": "",
          "type": "uint256"
        }
      ],
      "stateMutability": "view",
      "type": "function"
    },
    {
      "inputs": [
        {
          "internalType": "address",
          "name": "from",
          "type": "address"
        },
        {
          "internalType": "address",
          "name": "to",
          "type": "address"
        },
        {
          "internalType": "uint256",
          "name": "tokenId",
          "type": "uint256"
        }
      ],
      "name": "safeTransferFrom",
      "outputs": [],
      "stateMutability": "nonpayable",
      "type": "function"
    },
    {
      "inputs": [
        {
          "internalType": "address",
          "name": "from",
          "type": "address"
        },
        {
          "internalType": "address",
          "name": "to",
          "type": "address"
        },
        {
          "internalType": "uint256",
          "name": "tokenId",
          "type": "uint256"
        },
        {
          "internalType": "bytes",
          "name": "_data",
          "type": "bytes"
        }
      ],
      "name": "safeTransferFrom",
      "outputs": [],
      "stateMutability": "nonpayable",
      "type": "function"
    },
    {
      "inputs": [
        {
          "internalType": "address",
          "name": "operator",
          "type": "address"
        },
        {
          "internalType": "bool",
          "name": "approved",
          "type": "bool"
        }
      ],
      "name": "setApprovalForAll",
      "outputs": [],
      "stateMutability": "nonpayable",
      "type": "function"
    },
    {
      "inputs": [
        {
          "internalType": "address",
          "name": "_airnode",
          "type": "address"
        },
        {
          "internalType": "bytes32",
          "name": "_endpointIdUint256",
          "type": "bytes32"
        },
        {
          "internalType": "address",
          "name": "_sponsorWallet",
          "type": "address"
        }
      ],
      "name": "setRequestParameters",
      "outputs": [],
      "stateMutability": "nonpayable",
      "type": "function"
    },
    {
      "inputs": [],
      "name": "sponsorWallet",
      "outputs": [
        {
          "internalType": "address",
          "name": "",
          "type": "address"
        }
      ],
      "stateMutability": "view",
      "type": "function"
    },
    {
      "inputs": [
        {
          "internalType": "bytes4",
          "name": "interfaceId",
          "type": "bytes4"
        }
      ],
      "name": "supportsInterface",
      "outputs": [
        {
          "internalType": "bool",
          "name": "",
          "type": "bool"
        }
      ],
      "stateMutability": "view",
      "type": "function"
    },
    {
      "inputs": [],
      "name": "symbol",
      "outputs": [
        {
          "internalType": "string",
          "name": "",
          "type": "string"
        }
      ],
      "stateMutability": "view",
      "type": "function"
    },
    {
      "inputs": [
        {
          "internalType": "uint256",
          "name": "tokenId",
          "type": "uint256"
        }
      ],
      "name": "tokenURI",
      "outputs": [
        {
          "internalType": "string",
          "name": "",
          "type": "string"
        }
      ],
      "stateMutability": "view",
      "type": "function"
    },
    {
      "inputs": [
        {
          "internalType": "address",
          "name": "from",
          "type": "address"
        },
        {
          "internalType": "address",
          "name": "to",
          "type": "address"
        },
        {
          "internalType": "uint256",
          "name": "tokenId",
          "type": "uint256"
        }
      ],
      "name": "transferFrom",
      "outputs": [],
      "stateMutability": "nonpayable",
      "type": "function"
    },
    {
      "inputs": [
        {
          "internalType": "address",
          "name": "newOwner",
          "type": "address"
        }
      ],
      "name": "transferOwnership",
      "outputs": [],
      "stateMutability": "nonpayable",
      "type": "function"
    }
  ],
  "transactionHash": "0x12dca31ecea9b27fc6202b0d6526dddce613a6c7f9192e84a67ec58e44707c83",
  "args": [
    "0xa0AD79D995DdeeB18a14eAef56A549A04e3Aa1Bd"
  ],
  "numDeployments": 4,
  "solcInputHash": "a731a4a9d655711405524550185e9b19",
  "bytecode": "0x60a06040523480156200001157600080fd5b50604051620022ce380380620022ce833981016040819052620000349162000232565b604080518082018252601b81527f44756e67656f6e73416e64447261676f6e73436861726163746572000000000060208083019182528351808501909452600384526211099160ea1b9084015281518493916200009591600091906200018c565b508051620000ab9060019060208401906200018c565b5050506001600160a01b0381166080819052604051632b77c09f60e21b81523060048201526001602482015263addf027c90604401600060405180830381600087803b158015620000fb57600080fd5b505af115801562000110573d6000803e3d6000fd5b50505050506200012f620001296200013660201b60201c565b6200013a565b50620002a1565b3390565b600680546001600160a01b038381166001600160a01b0319831681179093556040519116919082907f8be0079c531659141344cd1fd0a4f28419497f9722a3daafe3b4186f6b6457e090600090a35050565b8280546200019a9062000264565b90600052602060002090601f016020900481019282620001be576000855562000209565b82601f10620001d957805160ff191683800117855562000209565b8280016001018555821562000209579182015b8281111562000209578251825591602001919060010190620001ec565b50620002179291506200021b565b5090565b5b808211156200021757600081556001016200021c565b6000602082840312156200024557600080fd5b81516001600160a01b03811681146200025d57600080fd5b9392505050565b600181811c908216806200027957607f821691505b602082108114156200029b57634e487b7160e01b600052602260045260246000fd5b50919050565b60805161200a620002c46000396000818161035401526107b2015261200a6000f3fe608060405234801561001057600080fd5b50600436106101cf5760003560e01c806371bab66611610104578063a36ff4d8116100a2578063cad627b311610071578063cad627b314610444578063de6d566714610457578063e985e9c51461046a578063f2fde38b146104a657600080fd5b8063a36ff4d8146103f8578063b88d4fde1461040b578063bf90fb4e1461041e578063c87b56dd1461043157600080fd5b80638be59274116100de5780638be59274146103ac5780638da5cb5b146103cc57806395d89b41146103dd578063a22cb465146103e557600080fd5b806371bab6661461034f5780637bdf252514610376578063851244f71461038957600080fd5b8063274ac0c3116101715780636352211e1161014b5780636352211e146102ee5780636fe0c0461461030157806370a0823114610334578063715018a61461034757600080fd5b8063274ac0c31461028e57806342842e0e146102b75780634810bc59146102ca57600080fd5b8063081812fc116101ad578063081812fc14610228578063095ea7b3146102535780631a65e8ab1461026857806323b872dd1461027b57600080fd5b806301ffc9a7146101d457806306fdde03146101fc57806307b9fc5714610211575b600080fd5b6101e76101e236600461197f565b6104b9565b60405190151581526020015b60405180910390f35b61020461050b565b6040516101f391906119f4565b61021a60095481565b6040519081526020016101f3565b61023b610236366004611a07565b61059d565b6040516001600160a01b0390911681526020016101f3565b610266610261366004611a3c565b610637565b005b61021a610276366004611af2565b61074d565b610266610289366004611b3b565b6108b3565b61023b61029c366004611a07565b600d602052600090815260409020546001600160a01b031681565b6102666102c5366004611b3b565b6108e4565b6102dd6102d8366004611a07565b6108ff565b6040516101f3959493929190611b77565b61023b6102fc366004611a07565b6109cd565b61031461030f366004611a07565b610a44565b6040805194855260208501939093529183015260608201526080016101f3565b61021a610342366004611bad565b610aed565b610266610b74565b61023b7f000000000000000000000000000000000000000000000000000000000000000081565b610266610384366004611bc8565b610baa565b6101e7610397366004611a07565b600b6020526000908152604090205460ff1681565b61021a6103ba366004611a07565b600e6020526000908152604090205481565b6006546001600160a01b031661023b565b610204610c08565b6102666103f3366004611c04565b610c17565b60085461023b906001600160a01b031681565b610266610419366004611c40565b610c26565b600a5461023b906001600160a01b031681565b61020461043f366004611a07565b610c5e565b610266610452366004611cbc565b610d46565b610204610465366004611a07565b610fa8565b6101e7610478366004611d38565b6001600160a01b03918216600090815260056020908152604080832093909416825291909152205460ff1690565b6102666104b4366004611bad565b611042565b60006001600160e01b031982166380ac58cd60e01b14806104ea57506001600160e01b03198216635b5e139f60e01b145b8061050557506301ffc9a760e01b6001600160e01b03198316145b92915050565b60606000805461051a90611d6b565b80601f016020809104026020016040519081016040528092919081815260200182805461054690611d6b565b80156105935780601f1061056857610100808354040283529160200191610593565b820191906000526020600020905b81548152906001019060200180831161057657829003601f168201915b5050505050905090565b6000818152600260205260408120546001600160a01b031661061b5760405162461bcd60e51b815260206004820152602c60248201527f4552433732313a20617070726f76656420717565727920666f72206e6f6e657860448201526b34b9ba32b73a103a37b5b2b760a11b60648201526084015b60405180910390fd5b506000908152600460205260409020546001600160a01b031690565b6000610642826109cd565b9050806001600160a01b0316836001600160a01b031614156106b05760405162461bcd60e51b815260206004820152602160248201527f4552433732313a20617070726f76616c20746f2063757272656e74206f776e656044820152603960f91b6064820152608401610612565b336001600160a01b03821614806106cc57506106cc8133610478565b61073e5760405162461bcd60e51b815260206004820152603860248201527f4552433732313a20617070726f76652063616c6c6572206973206e6f74206f7760448201527f6e6572206e6f7220617070726f76656420666f7220616c6c00000000000000006064820152608401610612565b61074883836110dd565b505050565b600854600954600a54604051636e6be03f60e01b81526001600160a01b039384166004820152602481019290925230604483018190529083166064830152608482015263cad627b360e01b60a482015260e060c4820152600060e482018190529182917f000000000000000000000000000000000000000000000000000000000000000090911690636e6be03f9061010401602060405180830381600087803b1580156107f957600080fd5b505af115801561080d573d6000803e3d6000fd5b505050506040513d601f19601f820116820180604052508101906108319190611da6565b6000818152600b60209081526040808320805460ff19166001179055600c825290912085519293506108679290918601906118d0565b506000818152600d602052604080822080546001600160a01b031916331790555182917fcba2da2f3c0c732a104019a3104936397dde7343964c1518ceb760052e4537b191a292915050565b6108bd338261114b565b6108d95760405162461bcd60e51b815260040161061290611dbf565b610748838383611242565b61074883838360405180602001604052806000815250610c26565b6007818154811061090f57600080fd5b906000526020600020906005020160009150905080600001549080600101549080600201549080600301549080600401805461094a90611d6b565b80601f016020809104026020016040519081016040528092919081815260200182805461097690611d6b565b80156109c35780601f10610998576101008083540402835291602001916109c3565b820191906000526020600020905b8154815290600101906020018083116109a657829003601f168201915b5050505050905085565b6000818152600260205260408120546001600160a01b0316806105055760405162461bcd60e51b815260206004820152602960248201527f4552433732313a206f776e657220717565727920666f72206e6f6e657869737460448201526832b73a103a37b5b2b760b91b6064820152608401610612565b60008060008060078581548110610a5d57610a5d611e10565b90600052602060002090600502016000015460078681548110610a8257610a82611e10565b90600052602060002090600502016001015460078781548110610aa757610aa7611e10565b90600052602060002090600502016002015460078881548110610acc57610acc611e10565b90600052602060002090600502016003015493509350935093509193509193565b60006001600160a01b038216610b585760405162461bcd60e51b815260206004820152602a60248201527f4552433732313a2062616c616e636520717565727920666f7220746865207a65604482015269726f206164647265737360b01b6064820152608401610612565b506001600160a01b031660009081526003602052604090205490565b6006546001600160a01b03163314610b9e5760405162461bcd60e51b815260040161061290611e26565b610ba860006113e2565b565b6006546001600160a01b03163314610bd45760405162461bcd60e51b815260040161061290611e26565b600880546001600160a01b039485166001600160a01b031991821617909155600992909255600a8054919093169116179055565b60606001805461051a90611d6b565b610c22338383611434565b5050565b610c30338361114b565b610c4c5760405162461bcd60e51b815260040161061290611dbf565b610c5884848484611503565b50505050565b6000818152600260205260409020546060906001600160a01b0316610cdd5760405162461bcd60e51b815260206004820152602f60248201527f4552433732314d657461646174613a2055524920717565727920666f72206e6f60448201526e3732bc34b9ba32b73a103a37b5b2b760891b6064820152608401610612565b6000610cf460408051602081019091526000815290565b90506000815111610d145760405180602001604052806000815250610d3f565b80610d1e84611536565b604051602001610d2f929190611e5b565b6040516020818303038152906040525b9392505050565b6000838152600b602052604090205460ff16610d9b5760405162461bcd60e51b81526020600482015260146024820152732932b8bab2b9ba1024a2103737ba1035b737bbb760611b6044820152606401610612565b6000838152600b60205260408120805460ff19169055610dbd82840184611a07565b60075490915060006064610dd56305f5e10085611ea0565b610ddf9190611eca565b90506000620186a0610df56305f5e10086611ea0565b610dff9190611eca565b90506000620f4240610e156305f5e10087611ea0565b610e1f9190611eca565b9050600060076040518060a00160405280868152602001858152602001848152602001838152602001600c60008d81526020019081526020016000208054610e6690611d6b565b80601f0160208091040260200160405190810160405280929190818152602001828054610e9290611d6b565b8015610edf5780601f10610eb457610100808354040283529160200191610edf565b820191906000526020600020905b815481529060010190602001808311610ec257829003601f168201915b50505091909252505081546001818101845560009384526020938490208351600590930201918255838301519082015560408201516002820155606082015160038201556080820151805192939192610f3e92600485019201906118d0565b505050887f1ca47bacd454c26163f84eff4aa514e291ba9fa67ad6029e39567c122bbed30f87604051610f7391815260200190565b60405180910390a26000898152600d6020526040902054610f9d906001600160a01b031686611634565b505050505050505050565b600c6020526000908152604090208054610fc190611d6b565b80601f0160208091040260200160405190810160405280929190818152602001828054610fed90611d6b565b801561103a5780601f1061100f5761010080835404028352916020019161103a565b820191906000526020600020905b81548152906001019060200180831161101d57829003601f168201915b505050505081565b6006546001600160a01b0316331461106c5760405162461bcd60e51b815260040161061290611e26565b6001600160a01b0381166110d15760405162461bcd60e51b815260206004820152602660248201527f4f776e61626c653a206e6577206f776e657220697320746865207a65726f206160448201526564647265737360d01b6064820152608401610612565b6110da816113e2565b50565b600081815260046020526040902080546001600160a01b0319166001600160a01b0384169081179091558190611112826109cd565b6001600160a01b03167f8c5be1e5ebec7d5bd14f71427d1e84f3dd0314c0f7b2291e5b200ac8c7c3b92560405160405180910390a45050565b6000818152600260205260408120546001600160a01b03166111c45760405162461bcd60e51b815260206004820152602c60248201527f4552433732313a206f70657261746f7220717565727920666f72206e6f6e657860448201526b34b9ba32b73a103a37b5b2b760a11b6064820152608401610612565b60006111cf836109cd565b9050806001600160a01b0316846001600160a01b0316148061120a5750836001600160a01b03166111ff8461059d565b6001600160a01b0316145b8061123a57506001600160a01b0380821660009081526005602090815260408083209388168352929052205460ff165b949350505050565b826001600160a01b0316611255826109cd565b6001600160a01b0316146112bd5760405162461bcd60e51b815260206004820152602960248201527f4552433732313a207472616e73666572206f6620746f6b656e2074686174206960448201526839903737ba1037bbb760b91b6064820152608401610612565b6001600160a01b03821661131f5760405162461bcd60e51b8152602060048201526024808201527f4552433732313a207472616e7366657220746f20746865207a65726f206164646044820152637265737360e01b6064820152608401610612565b61132a6000826110dd565b6001600160a01b0383166000908152600360205260408120805460019290611353908490611ede565b90915550506001600160a01b0382166000908152600360205260408120805460019290611381908490611ef5565b909155505060008181526002602052604080822080546001600160a01b0319166001600160a01b0386811691821790925591518493918716917fddf252ad1be2c89b69c2b068fc378daa952ba7f163c4a11628f55a4df523b3ef91a4505050565b600680546001600160a01b038381166001600160a01b0319831681179093556040519116919082907f8be0079c531659141344cd1fd0a4f28419497f9722a3daafe3b4186f6b6457e090600090a35050565b816001600160a01b0316836001600160a01b031614156114965760405162461bcd60e51b815260206004820152601960248201527f4552433732313a20617070726f766520746f2063616c6c6572000000000000006044820152606401610612565b6001600160a01b03838116600081815260056020908152604080832094871680845294825291829020805460ff191686151590811790915591519182527f17307eab39ab6107e8899845ad3d59bd9653f200f220920489ca2b5937696c31910160405180910390a3505050565b61150e848484611242565b61151a8484848461164e565b610c585760405162461bcd60e51b815260040161061290611f0d565b60608161155a5750506040805180820190915260018152600360fc1b602082015290565b8160005b8115611584578061156e81611f5f565b915061157d9050600a83611eca565b915061155e565b60008167ffffffffffffffff81111561159f5761159f611a66565b6040519080825280601f01601f1916602001820160405280156115c9576020820181803683370190505b5090505b841561123a576115de600183611ede565b91506115eb600a86611ea0565b6115f6906030611ef5565b60f81b81838151811061160b5761160b611e10565b60200101906001600160f81b031916908160001a90535061162d600a86611eca565b94506115cd565b610c2282826040518060200160405280600081525061175b565b60006001600160a01b0384163b1561175057604051630a85bd0160e11b81526001600160a01b0385169063150b7a0290611692903390899088908890600401611f7a565b602060405180830381600087803b1580156116ac57600080fd5b505af19250505080156116dc575060408051601f3d908101601f191682019092526116d991810190611fb7565b60015b611736573d80801561170a576040519150601f19603f3d011682016040523d82523d6000602084013e61170f565b606091505b50805161172e5760405162461bcd60e51b815260040161061290611f0d565b805181602001fd5b6001600160e01b031916630a85bd0160e11b14905061123a565b506001949350505050565b611765838361178e565b611772600084848461164e565b6107485760405162461bcd60e51b815260040161061290611f0d565b6001600160a01b0382166117e45760405162461bcd60e51b815260206004820181905260248201527f4552433732313a206d696e7420746f20746865207a65726f20616464726573736044820152606401610612565b6000818152600260205260409020546001600160a01b0316156118495760405162461bcd60e51b815260206004820152601c60248201527f4552433732313a20746f6b656e20616c7265616479206d696e746564000000006044820152606401610612565b6001600160a01b0382166000908152600360205260408120805460019290611872908490611ef5565b909155505060008181526002602052604080822080546001600160a01b0319166001600160a01b03861690811790915590518392907fddf252ad1be2c89b69c2b068fc378daa952ba7f163c4a11628f55a4df523b3ef908290a45050565b8280546118dc90611d6b565b90600052602060002090601f0160209004810192826118fe5760008555611944565b82601f1061191757805160ff1916838001178555611944565b82800160010185558215611944579182015b82811115611944578251825591602001919060010190611929565b50611950929150611954565b5090565b5b808211156119505760008155600101611955565b6001600160e01b0319811681146110da57600080fd5b60006020828403121561199157600080fd5b8135610d3f81611969565b60005b838110156119b757818101518382015260200161199f565b83811115610c585750506000910152565b600081518084526119e081602086016020860161199c565b601f01601f19169290920160200192915050565b602081526000610d3f60208301846119c8565b600060208284031215611a1957600080fd5b5035919050565b80356001600160a01b0381168114611a3757600080fd5b919050565b60008060408385031215611a4f57600080fd5b611a5883611a20565b946020939093013593505050565b634e487b7160e01b600052604160045260246000fd5b600067ffffffffffffffff80841115611a9757611a97611a66565b604051601f8501601f19908116603f01168101908282118183101715611abf57611abf611a66565b81604052809350858152868686011115611ad857600080fd5b858560208301376000602087830101525050509392505050565b600060208284031215611b0457600080fd5b813567ffffffffffffffff811115611b1b57600080fd5b8201601f81018413611b2c57600080fd5b61123a84823560208401611a7c565b600080600060608486031215611b5057600080fd5b611b5984611a20565b9250611b6760208501611a20565b9150604084013590509250925092565b85815284602082015283604082015282606082015260a060808201526000611ba260a08301846119c8565b979650505050505050565b600060208284031215611bbf57600080fd5b610d3f82611a20565b600080600060608486031215611bdd57600080fd5b611be684611a20565b925060208401359150611bfb60408501611a20565b90509250925092565b60008060408385031215611c1757600080fd5b611c2083611a20565b915060208301358015158114611c3557600080fd5b809150509250929050565b60008060008060808587031215611c5657600080fd5b611c5f85611a20565b9350611c6d60208601611a20565b925060408501359150606085013567ffffffffffffffff811115611c9057600080fd5b8501601f81018713611ca157600080fd5b611cb087823560208401611a7c565b91505092959194509250565b600080600060408486031215611cd157600080fd5b83359250602084013567ffffffffffffffff80821115611cf057600080fd5b818601915086601f830112611d0457600080fd5b813581811115611d1357600080fd5b876020828501011115611d2557600080fd5b6020830194508093505050509250925092565b60008060408385031215611d4b57600080fd5b611d5483611a20565b9150611d6260208401611a20565b90509250929050565b600181811c90821680611d7f57607f821691505b60208210811415611da057634e487b7160e01b600052602260045260246000fd5b50919050565b600060208284031215611db857600080fd5b5051919050565b60208082526031908201527f4552433732313a207472616e736665722063616c6c6572206973206e6f74206f6040820152701ddb995c881b9bdc88185c1c1c9bdd9959607a1b606082015260800190565b634e487b7160e01b600052603260045260246000fd5b6020808252818101527f4f776e61626c653a2063616c6c6572206973206e6f7420746865206f776e6572604082015260600190565b60008351611e6d81846020880161199c565b835190830190611e8181836020880161199c565b01949350505050565b634e487b7160e01b600052601260045260246000fd5b600082611eaf57611eaf611e8a565b500690565b634e487b7160e01b600052601160045260246000fd5b600082611ed957611ed9611e8a565b500490565b600082821015611ef057611ef0611eb4565b500390565b60008219821115611f0857611f08611eb4565b500190565b60208082526032908201527f4552433732313a207472616e7366657220746f206e6f6e20455243373231526560408201527131b2b4bb32b91034b6b83632b6b2b73a32b960711b606082015260800190565b6000600019821415611f7357611f73611eb4565b5060010190565b6001600160a01b0385811682528416602082015260408101839052608060608201819052600090611fad908301846119c8565b9695505050505050565b600060208284031215611fc957600080fd5b8151610d3f8161196956fea2646970667358221220ead7ad12ffcd195f19bb630753766216c49c3313e950a41b83f396d9e9c63fa964736f6c63430008090033",
  "devdoc": {
    "kind": "dev",
    "methods": {
      "approve(address,uint256)": {
        "details": "See {IERC721-approve}."
      },
      "balanceOf(address)": {
        "details": "See {IERC721-balanceOf}."
      },
      "getApproved(uint256)": {
        "details": "See {IERC721-getApproved}."
      },
      "isApprovedForAll(address,address)": {
        "details": "See {IERC721-isApprovedForAll}."
      },
      "name()": {
        "details": "See {IERC721Metadata-name}."
      },
      "owner()": {
        "details": "Returns the address of the current owner."
      },
      "ownerOf(uint256)": {
        "details": "See {IERC721-ownerOf}."
      },
      "renounceOwnership()": {
        "details": "Leaves the contract without owner. It will not be possible to call `onlyOwner` functions anymore. Can only be called by the current owner. NOTE: Renouncing ownership will leave the contract without an owner, thereby removing any functionality that is only available to the owner."
      },
      "safeTransferFrom(address,address,uint256)": {
        "details": "See {IERC721-safeTransferFrom}."
      },
      "safeTransferFrom(address,address,uint256,bytes)": {
        "details": "See {IERC721-safeTransferFrom}."
      },
      "setApprovalForAll(address,bool)": {
        "details": "See {IERC721-setApprovalForAll}."
      },
      "supportsInterface(bytes4)": {
        "details": "See {IERC165-supportsInterface}."
      },
      "symbol()": {
        "details": "See {IERC721Metadata-symbol}."
      },
      "tokenURI(uint256)": {
        "details": "See {IERC721Metadata-tokenURI}."
      },
      "transferFrom(address,address,uint256)": {
        "details": "See {IERC721-transferFrom}."
      },
      "transferOwnership(address)": {
        "details": "Transfers ownership of the contract to a new account (`newOwner`). Can only be called by the current owner."
      }
    },
    "version": 1
  },
  "userdoc": {
    "kind": "user",
    "methods": {},
    "version": 1
  },
  "storageLayout": {
    "storage": [
      {
        "astId": 502,
        "contract": "contracts/API3QRNG.sol:API3QRNG",
        "label": "_name",
        "offset": 0,
        "slot": "0",
        "type": "t_string_storage"
      },
      {
        "astId": 504,
        "contract": "contracts/API3QRNG.sol:API3QRNG",
        "label": "_symbol",
        "offset": 0,
        "slot": "1",
        "type": "t_string_storage"
      },
      {
        "astId": 508,
        "contract": "contracts/API3QRNG.sol:API3QRNG",
        "label": "_owners",
        "offset": 0,
        "slot": "2",
        "type": "t_mapping(t_uint256,t_address)"
      },
      {
        "astId": 512,
        "contract": "contracts/API3QRNG.sol:API3QRNG",
        "label": "_balances",
        "offset": 0,
        "slot": "3",
        "type": "t_mapping(t_address,t_uint256)"
      },
      {
        "astId": 516,
        "contract": "contracts/API3QRNG.sol:API3QRNG",
        "label": "_tokenApprovals",
        "offset": 0,
        "slot": "4",
        "type": "t_mapping(t_uint256,t_address)"
      },
      {
        "astId": 522,
        "contract": "contracts/API3QRNG.sol:API3QRNG",
        "label": "_operatorApprovals",
        "offset": 0,
        "slot": "5",
        "type": "t_mapping(t_address,t_mapping(t_address,t_bool))"
      },
      {
        "astId": 379,
        "contract": "contracts/API3QRNG.sol:API3QRNG",
        "label": "_owner",
        "offset": 0,
        "slot": "6",
        "type": "t_address"
      },
      {
        "astId": 2062,
        "contract": "contracts/API3QRNG.sol:API3QRNG",
        "label": "characters",
        "offset": 0,
        "slot": "7",
        "type": "t_array(t_struct(Character)2058_storage)dyn_storage"
      },
      {
        "astId": 2064,
        "contract": "contracts/API3QRNG.sol:API3QRNG",
        "label": "airnode",
        "offset": 0,
        "slot": "8",
        "type": "t_address"
      },
      {
        "astId": 2066,
        "contract": "contracts/API3QRNG.sol:API3QRNG",
        "label": "endpointIdUint256",
        "offset": 0,
        "slot": "9",
        "type": "t_bytes32"
      },
      {
        "astId": 2068,
        "contract": "contracts/API3QRNG.sol:API3QRNG",
        "label": "sponsorWallet",
        "offset": 0,
        "slot": "10",
        "type": "t_address"
      },
      {
        "astId": 2072,
        "contract": "contracts/API3QRNG.sol:API3QRNG",
        "label": "expectingRequestWithIdToBeFulfilled",
        "offset": 0,
        "slot": "11",
        "type": "t_mapping(t_bytes32,t_bool)"
      },
      {
        "astId": 2076,
        "contract": "contracts/API3QRNG.sol:API3QRNG",
        "label": "requestToCharacterName",
        "offset": 0,
        "slot": "12",
        "type": "t_mapping(t_bytes32,t_string_storage)"
      },
      {
        "astId": 2080,
        "contract": "contracts/API3QRNG.sol:API3QRNG",
        "label": "requestToSender",
        "offset": 0,
        "slot": "13",
        "type": "t_mapping(t_bytes32,t_address)"
      },
      {
        "astId": 2084,
        "contract": "contracts/API3QRNG.sol:API3QRNG",
        "label": "requestToTokenId",
        "offset": 0,
        "slot": "14",
        "type": "t_mapping(t_bytes32,t_uint256)"
      }
    ],
    "types": {
      "t_address": {
        "encoding": "inplace",
        "label": "address",
        "numberOfBytes": "20"
      },
      "t_array(t_struct(Character)2058_storage)dyn_storage": {
        "base": "t_struct(Character)2058_storage",
        "encoding": "dynamic_array",
        "label": "struct API3QRNG.Character[]",
        "numberOfBytes": "32"
      },
      "t_bool": {
        "encoding": "inplace",
        "label": "bool",
        "numberOfBytes": "1"
      },
      "t_bytes32": {
        "encoding": "inplace",
        "label": "bytes32",
        "numberOfBytes": "32"
      },
      "t_mapping(t_address,t_bool)": {
        "encoding": "mapping",
        "key": "t_address",
        "label": "mapping(address => bool)",
        "numberOfBytes": "32",
        "value": "t_bool"
      },
      "t_mapping(t_address,t_mapping(t_address,t_bool))": {
        "encoding": "mapping",
        "key": "t_address",
        "label": "mapping(address => mapping(address => bool))",
        "numberOfBytes": "32",
        "value": "t_mapping(t_address,t_bool)"
      },
      "t_mapping(t_address,t_uint256)": {
        "encoding": "mapping",
        "key": "t_address",
        "label": "mapping(address => uint256)",
        "numberOfBytes": "32",
        "value": "t_uint256"
      },
      "t_mapping(t_bytes32,t_address)": {
        "encoding": "mapping",
        "key": "t_bytes32",
        "label": "mapping(bytes32 => address)",
        "numberOfBytes": "32",
        "value": "t_address"
      },
      "t_mapping(t_bytes32,t_bool)": {
        "encoding": "mapping",
        "key": "t_bytes32",
        "label": "mapping(bytes32 => bool)",
        "numberOfBytes": "32",
        "value": "t_bool"
      },
      "t_mapping(t_bytes32,t_string_storage)": {
        "encoding": "mapping",
        "key": "t_bytes32",
        "label": "mapping(bytes32 => string)",
        "numberOfBytes": "32",
        "value": "t_string_storage"
      },
      "t_mapping(t_bytes32,t_uint256)": {
        "encoding": "mapping",
        "key": "t_bytes32",
        "label": "mapping(bytes32 => uint256)",
        "numberOfBytes": "32",
        "value": "t_uint256"
      },
      "t_mapping(t_uint256,t_address)": {
        "encoding": "mapping",
        "key": "t_uint256",
        "label": "mapping(uint256 => address)",
        "numberOfBytes": "32",
        "value": "t_address"
      },
      "t_string_storage": {
        "encoding": "bytes",
        "label": "string",
        "numberOfBytes": "32"
      },
      "t_struct(Character)2058_storage": {
        "encoding": "inplace",
        "label": "struct API3QRNG.Character",
        "members": [
          {
            "astId": 2049,
            "contract": "contracts/API3QRNG.sol:API3QRNG",
            "label": "strength",
            "offset": 0,
            "slot": "0",
            "type": "t_uint256"
          },
          {
            "astId": 2051,
            "contract": "contracts/API3QRNG.sol:API3QRNG",
            "label": "intelligence",
            "offset": 0,
            "slot": "1",
            "type": "t_uint256"
          },
          {
            "astId": 2053,
            "contract": "contracts/API3QRNG.sol:API3QRNG",
            "label": "mana",
            "offset": 0,
            "slot": "2",
            "type": "t_uint256"
          },
          {
            "astId": 2055,
            "contract": "contracts/API3QRNG.sol:API3QRNG",
            "label": "experience",
            "offset": 0,
            "slot": "3",
            "type": "t_uint256"
          },
          {
            "astId": 2057,
            "contract": "contracts/API3QRNG.sol:API3QRNG",
            "label": "name",
            "offset": 0,
            "slot": "4",
            "type": "t_string_storage"
          }
        ],
        "numberOfBytes": "160"
      },
      "t_uint256": {
        "encoding": "inplace",
        "label": "uint256",
        "numberOfBytes": "32"
      }
    }
  }
}